:020000040800F2
:10000000FF4F00203D7F0108F1450008FD45000835
:10001000054600080D4600081546000800000000CF
:100020000000000000000000000000001D46000865
:100030002946000800000000354600084146000837
:10004000857F0108857F0108857F0108857F01087C
:10005000857F0108857F010851460008857F0108DA
:10006000857F0108857F0108857F0108857F01085C
:10007000857F0108857F0108857F0108857F01084C
:10008000857F0108857F0108857F0108857F01083C
:1000900089460008857F0108857F0108857F010862
:1000A000857F0108857F0108857F0108857F01081C
:1000B000857F01089D460008857F0108614600088C
:1000C00075460008857F0108857F0108857F010846
:1000D000857F0108857F0108857F0108857F0108EC
:1000E000857F0108857F0108857F010800000000E9
:1000F0000000000000000000000000000000000000
:0C01000000000000000000005FF808F1A3
:1001100010B5054C237833B9044B13B10448AFF341
:1001200000800123237010BDD80A002000000000C9
:10013000CCC80108084B10B51BB108490848AFF3FB
:1001400000800848036803B910BD074B002BFBD0A3
:10015000BDE81040184700BF00000000DC0A002086
:10016000CCC80108D80A00200000000000000000F0
:1001700080B483B000AF03463960FB7197F9073054
:10018000002B0BDA0D49FB7903F00F03043B3A68AF
:10019000D2B21201D2B20B441A7609E0084997F99B
:1001A00007303A68D2B21201D2B20B4483F800236E
:1001B00000BF0C37BD4680BC704700BF00ED00E0BB
:1001C00000E100E080B400AFBFF34F8F0549054B5D
:1001D000DB6803F4E062044B1343CB60BFF34F8F43
:1001E000FEE700BF00ED00E00400FA0580B582B034
:1001F00000AF78607B68013BB3F1807F01D30123BE
:100200000FE00A4A7B68013B53600F214FF0FF303B
:10021000FFF7AEFF054B00229A60044B07221A60DD
:10022000002318460837BD4680BD00BF10E000E03F
:1002300080B582B000AF07F03BFC04F0D9FA09F0BA
:100240009DFB0246234BA3FB02239B091846FFF7A5
:10025000CDFF04F09BFD05F049F94FF47A7007F0EB
:1002600095FC05F0C3FB05F0E1FD0023FB7105F0F3
:1002700075FC0346FB71FB791946174804F070FFC3
:1002800004F0F4FA154804F031FB0023002214496D
:10029000144804F0B1FC04F0A1FB134804F0B4FBD3
:1002A000124B55221A60114B01221A710F4B022278
:1002B0005A710E4B02221A730C4B00225A730B4BCD
:1002C00000229A73094B0FCB04F0ACFB052005F01C
:1002D00065FEFEE7D34D6210E8C9010820A10700C2
:1002E0008000600040002000F1020008D40B0020D4
:1002F00080B586B000AF00237B613B1D184604F03B
:10030000EBFB154B55221A6000237B610FE007F1D0
:1003100008027B6913441B780133D9B20E4A7B690A
:10032000134404330A461A707B6901337B617B698D
:10033000072BECDD084B08221A73074B00225A7377
:10034000054B00229A73044B0FCB04F06BFB00BFEC
:100350001837BD4680BD00BFD40B0020B0B59CB09F
:1003600002AF786007F10803184605F017FCB7F9EB
:100370000830184616F0ECFF03464FF0645118465B
:1003800017F03AF803467B61B7F90A30184616F0C1
:10039000DFFF03464FF06451184617F02DF803466F
:1003A000BB61B7F90C30184616F0D2FF03464FF088
:1003B0006451184617F020F80346FB61B7F90E3078
:1003C000184616F0C5FF0346184616F009FC9AA316
:1003D000D3E9002316F058FC03460C461846214684
:1003E00016F0ACFE03463B62B7F91030184616F023
:1003F000AFFF0346184616F0F3FB8FA3D3E90023A3
:1004000016F042FC03460C461846214616F096FEAE
:1004100003467B62B7F91230184616F099FF03467F
:10042000184616F0DDFB84A3D3E9002316F02CFC5C
:1004300003460C461846214616F080FE0346BB6272
:10044000386A796ABC6A7D69BB69FA69019200936E
:100450002B46224606F040FF794B1A68784B1B6802
:100460001946104616F0C8FF03461C46754B1A681D
:10047000744B1B681946104616F0BEFF034619461A
:10048000204616F0B1FE03461C466F4B1A686E4BB1
:100490001B681946104616F0AFFF03461946204662
:1004A00016F0A0FE03461C46684B1A68674B1B6893
:1004B0001946104616F0A0FF03461946204616F0CE
:1004C00091FE03467B665F4B1A685F4B1B681946BB
:1004D000104616F091FF03461C46594B1A685B4BB9
:1004E0001B681946104616F087FF0346194620463A
:1004F00016F078FE03461946184616F075FE0346B8
:100500003B66504B1A68514B1B681946104616F053
:1005100073FF03461C464A4B1A684B4B1B6819462F
:10052000104616F069FF03461946204616F05CFE99
:1005300003461946184616F057FE0346FB65404B26
:100540001A68424B1B681946104616F055FF0346C1
:100550001C463C4B1A683C4B1B681946104616F06B
:100560004BFF03461946204616F03EFE0346194649
:10057000184616F039FE0346BB65314B1A68304BFE
:100580001B681946104616F037FF03461C462D4BD4
:100590001A682C4B1B681946104616F02DFF0346AF
:1005A0001946204616F01EFE03461C46264B1A68C6
:1005B000254B1B681946104616F01EFF03461946C8
:1005C000204616F011FE03461C46204B1A681F4BAE
:1005D0001B681946104616F00FFF034619462046C1
:1005E00016F000FE03467B65174B1A68174B1B6815
:1005F0001946104616F000FF03461C46104B1A68B9
:10060000104B1B681946104616F0F6FE03461946B5
:10061000204616F0E7FD03461946184616F0E4FD9D
:1006200003463B65074B1A68084B1B681946104682
:1006300016F0E2FE0CE000BFCDAE84FA0A74413F32
:1006400024010020540B0020580B00205C0B0020DC
:1006500003461C46A04B1A68A04B1B68194610465F
:1006600016F0CAFE03461946204616F0BDFD0346A5
:100670001946184616F0B8FD0346FB64974B1A68F6
:10068000974B1B681946104616F0B6FE03461C46EB
:10069000914B1A68934B1B681946104616F0ACFE36
:1006A00003461946204616F09FFD03461946184694
:1006B00016F09AFD0346BB64874B1A68864B1B688D
:1006C0001946104616F098FE03461C46854B1A68DC
:1006D000844B1B681946104616F08EFE03461946D9
:1006E000204616F07FFD03461C467C4B1A687B4B68
:1006F0001B681946104616F07FFE03461946204631
:1007000016F070FD03461C46754B1A68744B1B6847
:100710001946104616F070FE03461946204616F09C
:1007200063FD03467B64FB6C83F00043184616F0C0
:1007300057FA04460D46786C16F052FA02460B46FC
:10074000204629461BF0F8FA03460C461846214677
:1007500016F0F4FC03463B64B86C16F041FA03460D
:100760000C46184621461BF08FFA03460C461846E5
:10077000214616F0E3FC0346FB633B6E83F0004327
:10078000184616F02DFA04460D46786D16F028FA34
:1007900002460B46204629461BF0CEFA03460C467D
:1007A0001846214616F0CAFC0346BB63386C16F0A7
:1007B00017FA47A3D3E9002316F066FA03460C465E
:1007C0001846214616F0BAFC03463B64F86B16F057
:1007D00007FA3FA3D3E9002316F056FA03460C4666
:1007E0001846214616F0AAFC0346FB63B86B16F0C8
:1007F000F7F937A3D3E9002316F046FA03460C466F
:100800001846214616F09AFC0346BB63386C16F076
:10081000E7F94FF00002344B16F036FA03460C4667
:100820001846214616F042FC03467B63F86B16F02F
:10083000D7F94FF000022C4B16F026FA03460C466F
:100840001846214616F032FC03463B63B86B16F09F
:10085000C7F94FF00002244B16F016FA03460C4677
:100860001846214616F022FC0346FB621F4B7022FD
:100870001A607B6B1B12DAB21C4B1A717B6BDAB2FB
:100880001A4B5A713B6B1B12DAB2184B9A713B6BC5
:10089000DAB2164BDA71FB6A1B12DAB2134B1A7218
:1008A000FB6ADAB2114B5A72104B06221A730F4BC5
:1008B00000225A730D4B00229A730C4B0FCB04F09D
:1008C000B1F800BF6837BD46B0BD00BFAFF30080D0
:1008D000E5BF631ADCA54C4024010020580B002022
:1008E0005C0B0020540B002000002440540C00201E
:1008F00080B582B000AF264B01225A7003F00EFB88
:100900004FF4FA7007F042F9002003F06FFB0A2061
:1009100007F03CF9012003F069FB012007F036F9EC
:100920000A2007F033F9522000F03CF9522000F081
:1009300051F90346FB71FB791946164804F010FC87
:10094000522000F059F9522001F018FA0346DAB2A9
:100950000F4BDA70522000F081FE03465BB2DB01E0
:100960005BB2DB1159B20A4A137861F38203137048
:100970000021522002F0FCFB074B4FF0FF321A60BF
:10098000034B05225A7000BF0837BD4680BD00BF2B
:10099000BC0B0020ECC901080000002080B500AFAE
:1009A00002F0AEFD03F03CFB02464A4B1A60494B95
:1009B0001A68494B1B689A4230D0464B1B68464A1E
:1009C0001360522000F0C4FA0246444B1A603F21E3
:1009D000522001F065FB414B1B68002B03D04048BF
:1009E00002F056FE1AE03C4B1B68002B11D101228D
:1009F0000821522001F0CCFA0721522000F054FFC8
:100A0000384B00229A70374BDB78184602F0DCFE38
:100A100004E0344B01225A7002F0C6FE314B5B7881
:100A2000072B46D801A252F823F000BF4D0A000858
:100A3000530A0008590A00088D0A0008B30A000882
:100A4000690A00086F0A0008750A000803F0F6F842
:100A50003DE002F02BFE3AE0234B1B68234A136073
:100A6000204B04225A7032E003F0E2F82FE003F04A
:100A70001DF82CE003F0D4FA0346002B0CBF012331
:100A80000023DBB21A46144B1A6020E0164B1A689A
:100A9000164B1B68D31AB3F5487F07D3114B0022BE
:100AA0005A70114B1B68114A136010E002F028FDC8
:100AB0000DE002F025FD0C4B1A680C4B1B68D31A95
:100AC00041F28732934202D9FFF77CFBFFE700BF78
:100AD00080BD00BFB80B002000000020640C002087
:100AE0000CCA0108BC0B00209C0B0020C40B00208A
:100AF00080B483B000AF0346FB71FB79132B01D99F
:100B0000002303E0FB79044A52F8233018460C37DF
:100B1000BD4680BC704700BF0400002090B585B082
:100B200000AF0446084611461A462346FB710346A9
:100B3000BB800B46BB711346FB70BB881B0A9BB284
:100B4000DBB23B72BB88DBB27B7207F10801FB7939
:100B50000222184602F070FDF860FB68002B1BD1E2
:100B600007F10803991CFB790122184602F07AFD6F
:100B7000F860FB68002B0FD1BA7ABB791340DAB268
:100B8000FB781343DBB2BB7207F10801FB79032248
:100B9000184602F051FDF860FB6818461437BD4650
:100BA00090BD00BF80B584B000AF0346FB7107F174
:100BB0000B031A461621522004F02EFEF860FB7A31
:100BC000012B02D0FB68002BF1D0FB6818461037D0
:100BD000BD4680BD80B584B000AF0346FB7107F110
:100BE0000F031A460021522004F016FEFB7B184624
:100BF0001037BD4680BD00BF80B588B000AF03464A
:100C0000FB71494B55221A81474B64225A81464B4E
:100C100000221A74444B01221A76434B64225A82F2
:100C2000414B01229A82404B0122DA823E4B012243
:100C30005A763D4B012283F89020FB79184602F04A
:100C4000FBFA4FF4FA7006F0A1FF07F113031A46FE
:100C50002421522004F0E0FDF861FB69002B03D051
:100C6000324804F07DFA5AE097F913202E4B83F8AE
:100C7000912007F10C031A462621522004F040FE71
:100C8000F861FB69002B03D0294804F069FA46E0BB
:100C9000FB681B0C1B04002B01D1264BFB60FB687F
:100CA000214A136007F10A031A461E21522004F05C
:100CB000E9FDF861FB69002B03D01F4804F050FAEE
:100CC0002DE07B891A464FF47A7303FB02F3DB09AC
:100CD000BB61154ABB695360FB79184602F00AFBF9
:100CE00078617B69002B03DA144804F039FA16E0C6
:100CF00007F112031A461621522004F08DFDF86107
:100D0000FB69002B03D00E4804F02AFA07E0BB7CF5
:100D1000012B02D17B69002B01D00123FB61FB6910
:100D200018462037BD4680BD50000020C8CC0108C1
:100D3000F8CC0108F803CE0014CD010844CD010819
:100D400058CD010880B485B000AF0346FB71054B58
:100D500093F89130FB7397F90F3018461437BD465E
:100D600080BC70475000002080B584B000AF0346BF
:100D70000A46FB711346BB710B4ABB7982F891306E
:100D800097F90630084A127E93FBF2F3BB71BB79E8
:100D90001A462421522004F0BBFCF860FB68184678
:100DA0001037BD4680BD00BF5000002080B584B024
:100DB00000AF03460A46FB711346BB80BB881A4648
:100DC0001E21522004F0CAFCF860FB68002B0ED1F3
:100DD000BB884FF47A7202FB03F3DB09BB60064A5F
:100DE000BB685360FB79184602F084FAF860FB6830
:100DF00018461037BD4680BD5000002080B584B035
:100E000000AF03460A46FB711346BB71BB795B0812
:100E1000DBB21A4640F21221522004F079FCF8604D
:100E2000FB68002B02D0044804F09AF9FB681846CE
:100E30001037BD4680BD00BF7CCD010880B485B0B1
:100E400000AF0346FB71074B1B7EFB60FB68013B59
:100E5000054A32F813307B817B8918461437BD462A
:100E600080BC7047500000201CCB010880B586B0C4
:100E700000AF0346FB7100237B61FB79184600F04D
:100E80008DFF38613B69002B03DA214804F068F9D3
:100E900038E03B69002B02DD1E4804F061F907F1E0
:100EA0000F031A464FF49071522004F0B5FC78619C
:100EB0007B69002B15D1FB7B9AB2174BDA8207F1C5
:100EC0000F031A463F21522004F0A6FC78617B698B
:100ED000002B08D1FA7BFB791146184600F018FA6E
:100EE00002E000BF00E000BF7B69002B02DA084887
:100EF00004F036F97B69002B04D13B69002B01D04B
:100F00003B697B617B6918461837BD4680BD00BFD1
:100F100094CD0108A4CD01085000002080B584B014
:100F200000AF03463960FB713B68002B02D0012300
:100F3000FB7301E00023FB73FB7B1A461721522051
:100F400004F0E6FBB860BB6818461037BD4680BDAC
:100F500080B584B000AF0346FB71FB791846FFF7FC
:100F600085FFF860FB68002B53DBFB7904211846F2
:100F700001F022F8F860FB68002B4CD1FB79C82205
:100F80000A21184600F09CFBF860FB68002B03D098
:100F9000284804F0E5F847E0FB796421184600F0A2
:100FA00005FAF860FB68002B37D1FB79C821184699
:100FB00000F0D8F9F860FB68002B30D1FB790021F4
:100FC000184600F0A5F9F860FB68002B29D1FB79E1
:100FD000FF220021184600F07BF9F860FB68002B27
:100FE00021D1FB790421184600F04EF9F860FB6826
:100FF000002B03D0104804F0B3F815E0FB79184635
:1010000001F09CFAFB790721184600F04DFCF860CE
:101010000AE000BF08E000BF06E000BF04E000BF38
:1010200002E000BF00E000BFFB6818461037BD4675
:1010300080BD00BFB8CD0108DCCD010880B58AB005
:1010400000AF03463960FB7100237B624FF46053AD
:101050003B6207F10A031A465021522004F012FCA9
:10106000F861FB69002B26D1154B5B8ABB61144BE1
:10107000DB8A7B61BB690133BB617B891A463B6AB2
:1010800003FB02F37B627A6ABB69B2FBF3F37B6218
:101090000B4B9B8A3B610B4A3B6932F81330FB6078
:1010A0007B69FA6802FB03F37A6AB2FBF3F37B62B3
:1010B0003B687A6A1A60FB6918462837BD4680BDCE
:1010C0005000002024CB010880B584B000AF034657
:1010D0003960FB713A68FB7911461846FFF7AEFF9D
:1010E000F860FB68002B0DD107F10B031A464E2167
:1010F000522004F091FBF860FB7A1B09DBB21A4620
:101100003B685A60FB6818461037BD4680BD00BF7B
:1011100080B586B000AF03463960FB71FB790121D1
:10112000184600F095F878617B69002B03D01A48C7
:1011300004F016F82BE007F10F02FB791146184670
:1011400000F02EF878617B69002B03D1FB7B042B28
:1011500002D0F0E700BF00E000BF7B69002B05D1A3
:10116000FB7939681846FFF7AFFF7861FB790221F8
:10117000184600F099FB38613B69002B07D00748FF
:1011800003F0EEFF7B69002B01D13B697B617B693A
:1011900018461837BD4680BD00CE010820CE010894
:1011A00080B584B000AF03463960FB7107F10B03D3
:1011B0001A464F21522004F02FFBF860FB7ADB081F
:1011C000DBB203F00703DAB23B681A70FB6818461B
:1011D0001037BD4680BD00BF80B586B000AF034666
:1011E0003960FB713B68002B03DC6FF001037B610E
:1011F00029E000233B6115E007F10F031A464E2159
:10120000522004F009FB78617B69002B0FD1FB7B36
:1012100003F00103DBB2FB73FB7B002B09D13B69BD
:1012200001333B613A693B689A42E5DB02E000BF6B
:1012300000E000BF7B69002B05D1FB7B002B02D1B6
:101240006FF004037B617B6918461837BD4680BD8B
:1012500080B584B000AF03460A46FB711346BB71EC
:10126000BB79032B07D8BB791A463821522004F0EA
:101270004FFAF86002E06FF00103FB60FB6818466C
:101280001037BD4680BD00BF80B584B000AF0346B7
:101290000A46FB711346BB71BB79042B09D8BB7995
:1012A000DB00DBB2F879C7221421FFF737FCF860C6
:1012B00007E0BB791946054803F052FF6FF00103C0
:1012C000FB60FB6818461037BD4680BD44CE010860
:1012D00080B584B000AF0346FB710B46BB7113466B
:1012E0007B71BB791A463C21522004F011FAF86058
:1012F000FB68002B06D17B791A463A21522004F074
:1013000007FAF860FB6818461037BD4680BD00BF7D
:1013100080B584B000AF03460A46FB711346BB712B
:10132000BB7923F04003BB71BB79072B01D907239D
:10133000BB71BB7943F04003FB73FB7B1A463F2133
:10134000522004F0E5F9B860BB68002B03D1BB79EB
:101350009AB2034B9A82BB6818461037BD4680BDCF
:101360005000002080B584B000AF03460A46FB71F0
:101370001346BB80BB8840F6F512934202D940F673
:10138000F613BB80BB88084AA2FB0323DB089BB291
:10139000DBB21A463E21522004F0BAF9F860FB682D
:1013A00018461037BD4680BDCDCCCCCC80B584B0BE
:1013B00000AF03460A46FB711346BB80BB88002B77
:1013C00003D0BB88013BFB8101E0BB88FB81FB892B
:1013D000B3F5E87F03D94FF4E873FB8105E0FB899F
:1013E000FF2B02D1FB890133FB81FB891A46402187
:1013F000522004F0B3F9B860BB68002B02D1044A54
:10140000FB895382BB6818461037BD4680BD00BFBC
:101410005000002080B586B000AF03463960FB71F4
:10142000FB790121184600F0FBFE78617B69002BF7
:1014300030D107F10C02FB791146184600F008FA8A
:1014400078617B69002B0CD13B7B03F00703DBB297
:10145000042B07D03B7B23F03F03DBB2002B01D1F1
:10146000E7E700BF7B69002B05D1FB793968184697
:1014700000F016F87861FB790121184600F014FAA3
:1014800038613B69002B06D07B69002B03D13B6997
:101490007B6100E000BF7B6918461837BD4680BD00
:1014A00080B584B000AF03463960FB710023FB6058
:1014B000FB68002B03D0374803F052FE64E03A6823
:1014C000FB791146184600F0D9F8F860FB68002B4C
:1014D00055D107F10A031A466621522004F0D2F9C9
:1014E000F860FB68002B46D17B891A463B685A603E
:1014F00007F109031A464D21522004F08DF9F860D6
:10150000FB68002B06D17B7A1B09DBB21A463B68CD
:101510009A6002E0204803F023FEFB793968184600
:1015200001F09EFDF860FB68002B2CD11B4B5B7E0D
:10153000002B15D0FB793968184601F03FFDF860A3
:10154000FB68002B0CD13B685B6A002B08D03B6822
:101550005A6A3B689A603B681B8C1A463B681A6063
:101560000E4B93F89030002B0ED0FB79396818465B
:1015700001F082FF08E00A4803F0F2FD04E00948A8
:1015800003F0EEFD00E000BFFB6818461037BD46D3
:1015900080BD00BF64CE010880CE0108500000204D
:1015A000A0CE0108C4CE010880B584B000AF0346C8
:1015B0003960FB7107F10802FB791146184600F00B
:1015C00047F9F860FB68002B25D13B7A03F007034D
:1015D000DBB2042B05D03B7A23F03F03DBB2002BB8
:1015E00015D0FB7939681846FFF75AFFF860FB6899
:1015F000002B14D1FB790121184600F055F9F86051
:10160000FB68002B0BD0094803F0AAFD07E03B68FC
:1016100012229A6004E0064803F0A2FD00E000BF39
:10162000FB6818461037BD4680BD00BFE4CE0108F8
:1016300008CF010880B485B000AF03463960FB7164
:101640003B68DAB2044B5A760023FB60FB6818460D
:101650001437BD4680BC70475000002080B485B070
:1016600000AF0346FB71044B5B7EFB60FB681846D2
:101670001437BD4680BC70475000002080B586B04E
:1016800000AF03463960FB7107F10F031A46622170
:10169000522004F0C1F878617B69002B09D1074B17
:1016A0001B7E3B61FB7B1A463B6903FB02F23B68F6
:1016B0001A607B6918461837BD4680BD500000206F
:1016C00080B584B000AF0346FB710B46BB71134677
:1016D0007B717B791A461921522004F019F8F860C1
:1016E000FB68002B06D1BB791A461A21522004F060
:1016F0000FF8F860FB6818461037BD4680BD00BF84
:1017000080B588B000AF7B600346FB730B46BB819E
:1017100013467B81254B1B7EBB61B989BA69134691
:101720001B029B1A994206DC7989BA6913461B028F
:101730009B1A994203DD6FF00103FB6130E07B6887
:10174000002B08D0FB7B01211846FFF7E7FBF8616F
:10175000FB69002B23D1BA89BB6992FBF3F3D9B2A1
:101760007A89BB6992FBF3F3DAB2FB7B1846FFF789
:10177000A7FFF861FB69002B02D00D4803F0F0FCD5
:101780007B68002B0CD0FB7B00211846FFF7C6FBC3
:101790007861FB69002B03D17B69FB6100E000BF2E
:1017A000FB6918462037BD4680BD00BF50000020B1
:1017B00028CF010880B588B000AF0346B9607A60D1
:1017C000FB730023FB611F4B1B7EBB617B68002BFF
:1017D00017D007F116031A461921522004F01CF8FD
:1017E000F861FB69002B03D0174803F0B9FC23E034
:1017F000BB7D9BB2BA6992B202FB03F39AB27B68DB
:101800001A80BB68002B17D007F117031A461A215C
:10181000522004F001F8F861FB69002B03D00B485B
:1018200003F09EFC08E0FB7D9BB2BA6992B202FB1A
:1018300003F39AB2BB681A80FB6918462037BD468D
:1018400080BD00BF5000002050CF010870CF0108BC
:1018500080B584B000AF03463960FB7107F10B031C
:101860001A464F21522003F0D7FFF860FB7A23F08D
:101870003803DAB23B681A70FB6818461037BD4669
:1018800080BD00BF80B584B000AF03463960FB71F6
:101890003A684F21522003F0BFFFF860FB681846FA
:1018A0001037BD4680BD00BF80B584B000AF034691
:1018B0000A46FB711346BB71BB79072B07D8BB796E
:1018C0001A461521522003F023FFF86002E06FF062
:1018D0000103FB60FB6818461037BD4680BD00BFA2
:1018E00080B584B000AF0346FB71012240F20721AE
:1018F000522003F00DFF01224FF40271522003F039
:1019000007FF00229621522003F002FFFD229721BB
:10191000522003F0FDFE0022E321522003F0F8FEE6
:101920000422E421522003F0F3FE0222E52152209A
:1019300003F0EEFE0122E621522003F0E9FE03222D
:10194000E721522003F0E4FE0222F521522003F0A9
:10195000DFFE0522D921522003F0DAFECE22DB2160
:10196000522003F0D5FE0322DC21522003F0D0FEEA
:10197000F822DD21522003F0CBFE00229F215220CD
:1019800003F0C6FE3C22A321522003F0C1FE002238
:10199000B721522003F0BCFE3C22BB21522003F0B1
:1019A000B7FE0922B221522003F0B2FE0922CA2159
:1019B000522003F0ADFE01224FF4CC71522003F00F
:1019C000A7FE17224FF4D871522003F0A1FE002287
:1019D00040F2AD11522003F09BFE0522FF21522060
:1019E00003F096FE05224FF48071522003F090FE22
:1019F000052240F29911522003F08AFE1B224FF477
:101A0000D371522003F084FE3E224FF4D67152204F
:101A100003F07EFE1F2240F2A711522003F078FE51
:101A200000223021522003F073FE10221121522097
:101A300003F06EFE30224FF48571522003F068FEF1
:101A400046223F21522003F063FEFF223121522023
:101A500003F05EFE63224021522003F059FE012272
:101A60002E21522003F054FE09221B21522003F0A4
:101A70004FFE31223E21522003F04AFE242214213F
:101A8000522003F045FEFB793221184600F008FB96
:101A9000F860FB6818461037BD4680BD80B584B03D
:101AA00000AF0346FB710023FB60074B1B68FB6024
:101AB000FA68DA21522003F07DFEB860BB68184650
:101AC0001037BD4680BD00BF5000002080B582B0F9
:101AD00000AF0346FB71012240F20721522003F0C0
:101AE00017FE01224FF40271522003F011FE002272
:101AF0009621522003F00CFE54229721522003F02D
:101B000007FE0022E321522003F002FE0422E4211A
:101B1000522003F0FDFD0222E521522003F0F8FDE2
:101B20000122E621522003F0F3FD0322E721522097
:101B300003F0EEFD0222F521522003F0E9FD05221B
:101B4000D921522003F0E4FDFB791846FFF7A6FFE8
:101B500000229F21522003F0DBFD2822A3215220E6
:101B600003F0D6FD0022B721522003F0D1FD282238
:101B7000BB21522003F0CCFD0922B221522003F0F8
:101B8000C7FD0922CA21522003F0C2FD01224FF4F1
:101B9000CC71522003F0BCFD17224FF4D8715220B3
:101BA00003F0B6FD002240F2AD11522003F0B0FD6B
:101BB0000522FF21522003F0ABFD05224FF4807176
:101BC000522003F0A5FD052240F29911522003F0A6
:101BD0009FFD1B224FF4D371522003F099FD3E224A
:101BE0004FF4D671522003F093FD1F2240F2A7114B
:101BF000522003F08DFD00223021522003F088FD99
:101C000010221121522003F083FD30224FF4857100
:101C1000522003F07DFD46223F21522003F078FD43
:101C2000FF223121522003F073FD63224021522014
:101C300003F06EFD01222E21522003F069FDFF22E8
:101C40002C21522003F064FD09221B21522003F0B5
:101C50005FFD31223E21522003F05AFD242214213F
:101C6000522003F055FDFB793221184600F018FA96
:101C7000002318460837BD4680BD00BF80B586B03A
:101C800000AF03460A46FB711346BB71BB79002BBC
:101C900065D0BB79032B62D8BB79013B354A32F85A
:101CA00013303B823B8A1A469621522003F056FDA0
:101CB0007861314ABB7913762F4B93F991301A46EC
:101CC000BB7992FBF3F3FB73FB7B1A462421522072
:101CD00003F01EFD78617B69002B0AD1BB791422C9
:101CE00092FBF3F3DBB21A462121522003F010FDE0
:101CF00078617B69002B19D11F4B1B7C002B15D001
:101D00001D4B9B897B827B8A1B4A127E93FBF2F3DD
:101D10007B827B8AFF2B01D9FF237B827B8ADBB20C
:101D20001A462521522003F0F3FC78617B69002BD1
:101D30000CD1BB79012B0CBF01230023DBB21A4667
:101D4000FB791146184600F091F978617B69002B08
:101D500009D1BB79012B06D003237B6103E06FF02F
:101D600001037B6100E000BF7B6918461837BD4660
:101D700080BD00BF14CB01085000002080B485B0A6
:101D800000AF0346FB71044B1B7EFB60FB681846EB
:101D90001437BD4680BC70475000002080B584B029
:101DA00000AF0346FB71FB791846FFF78FFEF86022
:101DB000FB68002BFB68002B0CD1094B1A7EFB79CA
:101DC00011461846FFF75AFFF860002216215220EC
:101DD00003F09EFCFB6818461037BD4680BD00BF6F
:101DE0005000002080B586B000AF0346B9607A602D
:101DF000FB73BB68002B02D0BB68012B17D1BB68FB
:101E0000002B02D110237B8201E011237B827B68AF
:101E1000002B02D020237B7401E000237B747B7CA9
:101E2000798AF87BDF22FEF779FE786102E06FF0B5
:101E300001037B617B6918461837BD4680BD00BF32
:101E400080B584B000AF03463960FB711346BB71A7
:101E50003B68002B02D03B68012B1ED1BB79082BBD
:101E600002D0BB79002B18D13B68002B02D1102384
:101E70007B8101E011237B81BB795B00DBB2798937
:101E8000F879E122FEF74AFEF860FB68002B0ED0DD
:101E900039680A4803F064F909E0BB791A463968E1
:101EA000074803F05DF96FF00103FB6000E000BF3D
:101EB000FB6818461037BD4680BD00BF8CCF0108B7
:101EC000ACCF010880B586B000AFB9607B60034637
:101ED000FB731346BB73BB68002B02D0BB68012B9E
:101EE0002FD1BB7B082B02D0BB7B002B29D1002339
:101EF0007B74BB68002B02D110237B8201E011238D
:101F00007B827B68002B03D07B7C43F020037B74B7
:101F1000BB7B5B005AB297F9113013435BB27B7401
:101F20007A7C7B8A1946522003F0F2FB78617B6948
:101F3000002B10D0BB68103B19460A4803F010F97B
:101F400009E0BB7B1A46B968074803F009F96FF04E
:101F500001037B6100E000BF7B6918461837BD466E
:101F600080BD00BFCCCF0108E8CF010880B584B0A8
:101F700000AF03463960FB71FB79002239681846CF
:101F8000FFF75EFFF860FB6818461037BD4680BD5E
:101F900080B584B000AF03463A60FB710B46BB715D
:101FA000BA79F8793B680121FFF78CFFF860FB688C
:101FB00018461037BD4680BD80B584B000AF0346DB
:101FC0000A46FB711346BB71BB79042B07D8BB795A
:101FD000F879F8221421FEF7A1FDF86007E0BB793B
:101FE0001946054803F0BCF86FF00103FB60FB687D
:101FF00018461037BD4680BD08D0010880B584B0B2
:1020000000AF0346FB710B46BB8013467B80BA884A
:102010007B889A421DD87B88002B1AD0124ABB8835
:102020001381114A7B88538107F10B031A461C2147
:10203000522003F0F1FBF860FB68002B0DD1FA7A17
:10204000FB791146184600F02BF8F860FB68002B6E
:1020500004E06FF00103FB6000E000BFFB6818467E
:102060001037BD4680BD00BF5000002080B584B051
:1020700000AF03463960FB713B68002B02D001239F
:10208000FB7301E00023FB73FB7BF879FE222D211B
:10209000FEF744FDB860BB6818461037BD4680BDEA
:1020A00080B584B000AF03460A46FB711346BB718E
:1020B0000023FB60BB791A461C21522003F028FB49
:1020C000F860FB68002B0DD1FB79184600F0ECF8A6
:1020D000F860FB68002B07D1FB79184601F00AF97C
:1020E000F86002E000BF00E000BFFB681846103750
:1020F000BD4680BD80B584B000AF03463960FB713A
:102100003B6840F6F612934203D96FF00103FB607F
:1021100022E03B68092B01D80A233B603B68114A47
:10212000A2FB0323DB08FB72FB7A1A461B21522019
:1021300003F0EEFAF860FB68002B03D00A4803F0C6
:102140000FF809E0FA7A3B680649A1FB0313DB08A4
:102150009A4201D00223FB60FB6818461037BD4647
:1021600080BD00BFCDCCCCCC28D0010880B584B0D8
:1021700000AF03463960FB7107F10B031A464D218E
:10218000522003F049FBF860FB68002B04D1FB7A76
:1021900003F001023B681A60FB6818461037BD4621
:1021A00080BD00BF80B586B000AF03463960FB71CB
:1021B00000237B613B68002B03DC6FF001037B6134
:1021C00029E000233B6115E007F10F031A464D217A
:1021D000522003F021FB78617B69002B0FD1FB7B40
:1021E00003F00103DBB2FB73FB7B002B09D13B69DE
:1021F00001333B613A693B689A42E5DB02E000BF8C
:1022000000E000BF7B69002B05D1FB7B002B02D1D6
:102210006FF004037B617B6918461837BD4680BDAB
:1022200080B584B000AF03460A46FB711346BB710C
:10223000BB79032B0DD8BB791A461821522003F025
:1022400067FAF860FB68002B06D0064802F088FFAA
:1022500002E06FF00103FB60FB6818461037BD46D3
:1022600080BD00BF54D0010880B584B000AF0346E4
:10227000FB71FB7903211846FFF7D2FFF860FB687A
:1022800018461037BD4680BD80B584B000AF034608
:10229000FB71FB7901211846FFF7C2FFF860FB686C
:1022A00018461037BD4680BD80B58EB000AF0346DE
:1022B000FB714FF47A733B634FF4FA73FB622B4B61
:1022C0001B89BB62294B5B897B6207F10F031A46AE
:1022D0001C21522003F0A0FA78637B6B002B03D003
:1022E000234802F03DFF3CE0FB7B3B62FB79184654
:1022F00000F0D8F8F861FB69002B03DA4FF0FF33E8
:102300007B632EE03B6A3A6B02FB03F2FB69D31A54
:10231000BB6107F110031A46B821522003F0F0FA0E
:1023200078637B6B002B03D0124802F019FF18E092
:102330003B691B023B61BB6AFA6A02FB03F33A6921
:1023400002FB03F2BB69796A01FB03F3B2FBF3F30F
:102350007B617B699BB21A462221522003F0FEF971
:1023600078637B6B18463837BD4680BD500000202F
:102370006CD0010894D0010880B588B000AF034646
:10238000FB71244B1B7C3B613B69002B2AD0214B0A
:102390009B89BB611F4B1B7E1A46BB6993FBF2F303
:1023A000BB61BB69FF2B01DDFF23BB61BB69DBB2F6
:1023B0001A462521522003F0ABF9F861FB69002B86
:1023C0001FD1144BDB89FB60FB689BB21A462621A8
:1023D000522003F0C3F9F861FB69002B13D10223EB
:1023E0007B6101E000237B617B69DBB2F879FD2230
:1023F0002D21FEF793FBF861FB79184600F07AFF78
:1024000002E000BF00E000BFFB6918462037BD4670
:1024100080BD00BF5000002080B584B000AF0346EF
:102420003960FB713B68002B01D001233B600A4BF4
:102430001B7CBB603A68BB689A4208D03B68DAB242
:10244000054B1A74FB791846FFF796FFF860FB6896
:1024500018461037BD4680BD5000002080B584B0BE
:1024600000AF0346FB710B46BB8013467B800C4BD1
:102470001B7CBB600A4ABB889381094A7B88D38155
:10248000BB68002B05D0FB791846FFF775FFF86095
:1024900001E00023FB60FB6818461037BD4680BD95
:1024A0005000002080B58CB000AF0346FB711823AC
:1024B000FB624623BB62C8237B62072387F8233075
:1024C00007F10B031A4640F20911522003F0A4F958
:1024D000F861FB69002B02D04FF0FF3329E0FA7A54
:1024E00097F823301340DBB2BB6107F10B031A46A8
:1024F0004FF48571522003F08FF9F861FB69002BCE
:1025000002D04FF0FF3314E0FB7A7B61FA6ABB6ABA
:10251000D1187A6913469B0013445B000B443B615E
:10252000BB6901333A6902FB03F27B6A1344FB6027
:10253000FB6818463037BD4680BD00BF80B485B00B
:1025400000AF0346FB711D4B0022DA611B4B0022DA
:102550005A661A4B00229A66184B0022DA66174B0D
:1025600000221A67154B00225A67144B0022A3F869
:102570006020124B00229A670023FB6011E00F4A93
:10258000FB6810335B0013444FF6FF729A800B4ACE
:10259000FB680C339B00134400229A60FB680133F4
:1025A000FB60FB68092BEADD044B00221A62002362
:1025B00018461437BD4680BC704700BF500000204D
:1025C00080B487B000AFF860B9607A603B60FB68A8
:1025D000002B08D0BB68642202FB03F2FB68B2FB4D
:1025E000F3F37B8202E042F20F737B827A8A3B68CC
:1025F0009A4202D37B687B6116E07A8A7B6A9A42B0
:1026000002D83B6A7B610FE07A8A7B6AD31A396A07
:102610007A688A1A02FB03F239687B6ACB1AB2FB2A
:10262000F3F33A6AD31A7B617B6918461C37BD46BF
:1026300080BC704780B5A8B002AF7B600346FB73D7
:102640000B46BB8113467B810023A7F896300023FD
:10265000A7F892300123A7F890300023A7F88E3016
:102660000023A7F88C300023A7F88A300023A7F8AE
:1026700088300023A7F886300023A7F88430002391
:10268000A7F882300023A7F880300023FB670023DF
:10269000A7F87A300023A7F8783000237B6700235F
:1026A0003B670023FB660023BB6600237B66002399
:1026B0003B660023FB654FF4E163FB644FF49673C4
:1026C000BB64A34B1B7E1A4613461B029B1A7B64FA
:1026D000B7F8A4300C3B032B25D801A252F823F005
:1026E000F1260008FF260008F1260008FF26000852
:1026F0001023A7F88C300023A7F88A3022E010239B
:10270000A7F88C30924B1B7E9BB21A469200134462
:102710001A4691001A460B461344DB00BB81012385
:10272000A7F88A300EE07A897B6C9A4206D30023A0
:10273000A7F88A300123A7F8923002E00123A7F816
:102740008A3000BFBB89A7F89630814B5B683B6439
:102750007F4BD3F88430FB637E4B1A683B6C134489
:10276000BB637D4B1B68FA6B02FB03F3DB087B4A00
:10277000A2FB03239A083B6C13447B63784B1B68D2
:10278000FA6B02FB03F3DB08744AA2FB03239A08EB
:102790003B6C13443B63734B1B68FA6B02FB03F304
:1027A000DB086E4AA2FB03239A083B6C1344FB62CE
:1027B0006D4B1B887A899A4209D27A68BB6B9A4220
:1027C00005D21023A7F88E300123A7F89230674B6B
:1027D0001B887A899A4209D27A687B6B9A4205D221
:1027E0001023A7F88E300123A7F892305F4B1B8887
:1027F0007A899A4209D25E4B1A687B6B1A447B68CD
:102800009A4202D90123A7F888305A4B1B68D7F89F
:10281000A0209A4205D90123A7F880300123A7F808
:102820009230554B1B687A689A4205D20123A7F86B
:1028300080300123A7F89230454B9B6B002B1ED0B4
:10284000434B9A6B7B689A420CD2414B9B6B7A68E4
:10285000D31A642202FB03F23D4B9B6BB2FBF3F3F2
:10286000FB670EE03A4B9A6B7B68D31A642202FB3B
:1028700003F2374B9B6BB2FBF3F3FB6701E00023E2
:10288000FB673E4B1B68FA6F9A4202D90123A7F8F7
:102890008030B7F88030012B24D12D4B0022DA6133
:1028A0000023A7F8943015E0B7F89430284A103385
:1028B0005B0013444FF6FF729A80B7F89430244AB5
:1028C0000C339B00134400229A60B7F89430013314
:1028D000A7F89430B7F89430092BE5D91C4B0022A7
:1028E0001A622DE00923A7F8943025E0B7F8942068
:1028F000B7F89430013B164910335B000B449888BD
:10290000134902F110035B000B4402469A80B7F8AA
:102910009410B7F89430013B0D4A0C339B001344DC
:102920009A680B4801F10C039B0003449A60B7F8C6
:102930009430013BA7F89430B7F89430002BD5D1F0
:10294000B7F88A30012B1BD1014ABB8993841BE065
:1029500050000020A8D00108ACD001081BA4411AE7
:10296000B0D00108B4D00108B8D00108BAD001082D
:10297000BCD00108C0D00108C4D00108C8D00108EB
:10298000934B4FF6FF729A84914A7B689363904B06
:102990001B6A01338E4A13628E4B1B887A899A42D6
:1029A00003D27A683B6B9A420CD38A4B1B887A8994
:1029B0009A4203D37A68FB6A9A4203D30123A7F8A9
:1029C000923015E0B7F88C30002B11D0B7F8A43056
:1029D0000C2B03D0B7F8A4300E2B03D1B7F88C30F2
:1029E000A7F88E300123A7F892300023A7F8903083
:1029F00007F117031A464FF4D671522002F00CFF6C
:102A0000B862BB6A002B40F0C682FB7DFB8407F1F5
:102A10001C031A464FF48671522002F071FFB8620F
:102A2000BB6A002B40F0B98207F118031A464FF435
:102A30008871522002F064FFB862BB6A002B40F03C
:102A4000AE82B7F88030012B07D0B7F89230012B57
:102A500021D1B7F89030012B1DD1FB8C3E2B0AD031
:102A60003E224FF4D671522002F052FEB862BB6A89
:102A7000002B40F09682FB69554A5366BB69544A65
:102A80009366FB69524AD366BB69514A1367504B40
:102A90000022DA6130E0FB8C3E2B06D1FB694C4A08
:102AA0005366BB694A4A936605E0FB69484AD366A8
:102AB000BB69474A1367464BDB69474A1288B3FB39
:102AC000F2F102FB01F29B1A002B02D13C23FB75B1
:102AD00001E03E23FB75FB7D1A464FF4D671522070
:102AE00002F016FEB862BB6A002B40F05C82384BE5
:102AF000DB690133364AD361B7F89230012B0DD12F
:102B0000B7F88E30324AD367B7F88E30102B02D127
:102B10007B6CA7F89630B7F8963047E22C4B9A6E4C
:102B20002B4B1B6F9A4206D9294B9A6E284B1B6F71
:102B3000D31ABB6501E00023BB65254ABB6D536713
:102B4000B7F88830002B03D1244B1B68FB6406E0E8
:102B5000224B1A68224B1B68B2FBF3F3FB641C4B3D
:102B60005A6E1B4BDB6E9A4206D9194B5A6E184BA4
:102B7000DB6ED31A7B6505E0154BDA6E144B5B6E8A
:102B8000D31A7B657A6DFB6C9A4204D97A6DFB6C23
:102B9000D31A3B6501E000233B657A6DFB6C13445F
:102BA0003B62BA6D3B6D9A4203D3BA6D3B6A9A425F
:102BB00006D90123A7F886301023A7F88E3045E107
:102BC000034BDB69012B0DD80523A7F87A300CE005
:102BD00050000020CCD00108CED00108D0D0010890
:102BE000D4D001080323A7F87A30AF4B1968AF4B54
:102BF0001868AF4B1B68AF4A1268019200930346F6
:102C00000A467968D7F8A000FFF7DAFCB864002319
:102C1000A7F8783000237B6700233B670023FB661F
:102C20000023BB6600237B6600233B660023A7F8D6
:102C3000943029E0B7F894309F4A10335B00134476
:102C40009B884FF6FF72934219D0B7F87830013362
:102C5000A7F87830B7F89430974A10335B001344E4
:102C60009B881A467B6F13447B67B7F89430924A6F
:102C70000C339B0013449B68BA6E1344BB66B7F8D1
:102C800094300133A7F89430B7F89430092B03D867
:102C9000B7F87830052BCDD9B7F87830002B0BD0AA
:102CA000B7F878307A6FB2FBF3F33B67B7F8783058
:102CB000BA6EB2FBF3F37B660023A7F878300023EB
:102CC0007B670023BB660023A7F8943048E0B7F881
:102CD0009430794A10335B0013449B884FF6FF729F
:102CE000934238D0B7F878300133A7F87830B7F886
:102CF0009430714A10335B0013449B881A463B6F33
:102D0000D31A1946B7F894306B4A10335B0013445A
:102D10009B881A463B6FD31A03FB01F31A467B6F5D
:102D200013447B67B7F89430634A0C339B00134419
:102D30009A687B6ED31A1946B7F894305E4A0C3302
:102D40009B0013449A687B6ED31A03FB01F31A4667
:102D5000BB6E1344BB66B7F894300133A7F89430C8
:102D6000B7F89430092B03D8B7F87830052BAED9D3
:102D7000B7F87820B7F87A309A420ED3B7F878309F
:102D80007A6FB2FBF3F39BB2FB66B7F87830BA6E9A
:102D9000B2FBF3F39BB23B6603E00023FB66002328
:102DA0003B66464B1B683A6E9A4249D2B7F8782088
:102DB000B7F87A309A4203D21023A7F88E3045E054
:102DC0003F4B1B683A6E9A420ED23E4B1A68BB6C60
:102DD000D31A3A6E02FB03F2394B1B68B2FBF3F2D3
:102DE000BB6C1344FB6502E0364B1B68FB65324B42
:102DF000DB6F002B05D1344B1A68FB6D02FB03F32C
:102E0000FB65324B1B68FA6E02FB03F2BB6C9A4205
:102E100007D2B7F87830052B03D90123A7F8823001
:102E200014E0FA6EFB6D9A4203D20123A7F88430B6
:102E30000CE00123A7F886301023A7F88E3005E0B8
:102E40000123A7F886301023A7F88E30B7F88A3010
:102E5000002B0DD1184BB3F86030002B67D0164B08
:102E6000B3F86030013B9AB2134BA3F860205EE0E8
:102E7000B7F88630012B2FD10F4BB3F86020144BDD
:102E80001B8813449AB20C4BA3F860200A4BB3F88A
:102E90006020104B1B889A4249D90E4B1A88064B6A
:102EA000A3F8602043E000BFD8D00108DCD00108BF
:102EB000E0D00108E4D0010850000020E8D001086B
:102EC000ECD00108F0D00108F4D00108F8D00108D6
:102ED000FCD00108FED00108B7F88430012B1ED1C8
:102EE000344BB3F86030002B21D01023A7F88E307C
:102EF000304BB3F86020304B1B889A420AD92D4BD7
:102F0000B3F860202C4B1B88D31A9AB2294BA3F834
:102F100060200CE0274B0022A3F8602007E0B7F800
:102F20008230012B03D1234B0022A3F86020214BD8
:102F3000DB6F002B21D1B7F88E30002B1DD0012381
:102F4000A7F8943015E0B7F894301A4A10335B00B4
:102F500013444FF6FF729A80B7F89430154A0C3339
:102F60009B00134400229A60B7F894300133A7F80D
:102F70009430B7F89430092BE5D9B7F88E300D4A64
:102F8000D367B7F88E30102B02D17B6CA7F8963040
:102F9000B7F896300AE000BF06E000BF04E000BFCB
:102FA00002E000BF00E000BF4FF0FF331846983743
:102FB000BD4680BD5000002000D10108B0B58AB0E8
:102FC00002AF03463960FB710023BB61234B1B7EBC
:102FD000FB7507F10F031A466421522002F01CFC16
:102FE000F861FB69002B33D1FB7BBB613B681B683D
:102FF00099B2FB7D9BB2BA6992B202FB03F39CB219
:103000003B681D693B68DB683A68926892B2F87960
:10301000019200932B462246FFF70CFB38613B6977
:10302000002B03DA4FF0FF33FB6112E03B699AB2E9
:103030003B681A84FB7D9BB2BA6992B202FB03F330
:103040009AB23B685A84054BDA6F3B685A6200E0DB
:1030500000BFFB6918462037BD46B0BD50000020B8
:1030600080B58CB000AF03463960FB7100237B61F3
:1030700000237B6200233B6200233B610023FB6053
:103080000023BB606FF00043FB610623BB6100239C
:10309000FB6207F110031A466C21522002F030FC4B
:1030A000B862BB6A002B56D13A69FB699A4201D9D2
:1030B00000233B6107F10C031A467421522002F0F1
:1030C0001FFCB862BB6A002B47D107F114031A46F4
:1030D0007C21522002F014FCB862BB6A002B3ED166
:1030E00007F108031A468021522002F009FCB86259
:1030F000BB6A002B35D17A693B685A61BA683B6874
:103100009A61BB68FB627A69BB689A4201D97B69A4
:10311000FB62FB6A002B02D14FF21863FB623B6932
:103120004FF47A7202FB03F2FB6AB2FBF3F37B62A9
:10313000FB68BA6902FB03F34FF47A7202FB03F2F5
:10314000FB6AB2FBF3F33B623B687A6A1A613B6845
:103150003A6ADA6006E000BF04E000BF02E000BFA8
:1031600000E000BFBB6A18463037BD4680BD00BFD7
:1031700080B584B000AF03463960FB713B68DAB2BA
:10318000094B83F890203B68002B05D0FB7918464B
:1031900000F0B0F8F86001E00023FB60FB6818461F
:1031A0001037BD4680BD00BF5000002080B485B000
:1031B00000AF0346FB71054B93F89030FB60FB6852
:1031C00018461437BD4680BC704700BF5000002031
:1031D00080B485B000AF78600023FB604FF080437F
:1031E000BB6002E0BB689B08BB60BA687B689A4220
:1031F000F8D817E0FA68BB681A447B689A420BD883
:10320000FA68BB6813447A68D31A7B60FB685A0873
:10321000BB681344FB6002E0FB685B08FB60BB68B3
:103220009B08BB60BB68002BE4D1FB6818461437D1
:10323000BD4680BC704700BF80B483B000AF03467A
:10324000FB71044B5022C3F8802000BF0C37BD46F1
:1032500080BC70475000002080B588B000AF0346A6
:103260003960FB71214BD3F880307B611F4BD3F861
:1032700088303B611D4BD3F88430FB603B68002BEA
:103280002CDD1B4A3B6892FBF3F3A3F5F273FB6161
:10329000FB69002B02DC0023BB6122E0FB69B3F574
:1032A000005F0BDAFB69FA6802FB03F319463A691F
:1032B0007B691344B1FBF3F3FB6109E0FA693969F7
:1032C0007B690B44B2FBF3F3FA6802FB03F3FB6187
:1032D000FB691846FFF77CFFB86102E06FF000431E
:1032E000BB61BB6918462037BD4680BD5000002039
:1032F0000068890980B58CB000AF0346FB710023DC
:10330000BB6207F113031A462A21522002F084FA05
:10331000F862FB6A002B40F09680FB7C002B03D107
:103320000123BB622823FB74FB7C1A464FF47A739B
:1033300003FB02F3DB09FB6107F10A031A462D21A7
:10334000522002F069FAF862FB6A002B7DD107F186
:103350000B031A461C21522002F05EFAF862FB6A47
:10336000002B74D107F10C031A46B821522002F049
:10337000C7FAF862FB6A002B6BD107F109031A4602
:103380002C21522002F048FAF862FB6A002B62D12D
:103390007B7A1A464FF47A5393FBF2F3344AC2F81D
:1033A0008830334B5B68BB61FA69BB699A4204D3CE
:1033B000FB692F4AC2F8843003E02D4B0022C3F88A
:1033C0008420BB7A03F00203002B13D007F1100313
:1033D0001A462621522002F055FAF862FB6A002BA9
:1033E0003BD13B8A1A464FF47A7303FB02F3DB09A5
:1033F0007B6201E000237B62FB681B02FA7A1146C4
:103400001C4A12680A44B3FBF2F33B627A6ABB6956
:10341000D21A3B6A9A4203DB7A6ABB69D31A3B62CF
:103420007B7A1A463B6A03FB02F31B097B617A69CC
:10343000FB7911461846FFF70FFF03469AB20C4B73
:10344000A3F88C200AE000BF08E000BF06E000BF40
:1034500004E000BF02E000BF00E000BFFB6A002BF9
:1034600001D1BB6AFB62FB6A18463037BD4680BD9E
:103470005000002004D1010880B586B000AF03469B
:103480003960FB713B68DB683B611A4B1B681A466D
:103490003B69934225D23A69FB7911461846FFF7FA
:1034A000DBFE03467B61144B1B7EFB60FB68013B2C
:1034B000124A32F813307B810F4BB3F88C301A4626
:1034C0007B699A4203DA0C4BB3F88C307B617A89C2
:1034D0007B699A4201DA7B897B617A693B68DA61B0
:1034E00002E03B680022DA61002318461837BD4627
:1034F00080BD00BF08D10108500000201CCB01088E
:1035000080B500AF0D4B1B68002B0CD00B4B1B681C
:10351000092219460A4815F053F8094B00225A723D
:10352000064B00221A600121054800F0ADFD054B55
:103530001B680133034A136000BF80BD700C00207C
:10354000F40A0020000B002080B582B000AF786044
:10355000FFF7D6FFFCE700BF80B483B000AF786010
:10356000034A7B68136000BF0C37BD4680BC7047C0
:10357000700C002080B582B000AF0346FB80FB8852
:10358000012B01D100F04AF800BF0837BD4680BDCD
:1035900080B400AF044B1B680133034A136000BFC3
:1035A000BD4680BC704700BF9C0B002080B582B038
:1035B00000AF7860786800F005F800BF0837BD46B6
:1035C00080BD00BF80B487B000AF7860094B1B6836
:1035D0007B61084B1B683B613A697B69D31AFB60CE
:1035E000FA687B689A42F4DB00BF1C37BD4680BC9A
:1035F000704700BF9C0B002080B582B000AF4FF435
:103600000051054807F028FB0346FB71FB7918467B
:103610000837BD4680BD00BF0010014080B400AF38
:10362000044B1B680133034A136000BFBD4680BCD6
:10363000704700BF040B002080B584B000AF034684
:103640003960FB711346BB71FB799BB2BA7939685B
:10365000184601F073FFF860FB6818461037BD4646
:1036600080BD00BF80B584B000AF03463960FB71F8
:103670001346BB71FB799BB2BA793968184601F0E1
:1036800077FFF860FB6818461037BD4680BD00BF65
:1036900080B483B000AF7860034B04225A7000BF3F
:1036A0000C37BD4680BC7047BC0B002080B582B093
:1036B00000AF34495220FDF72BFD78607B68002B6A
:1036C0005BD1304B1B6842F20F72934203D92E48F4
:1036D00001F046FD4EE02B4B1B68B3F57A7F3CD3DF
:1036E000284B1B68294A82FB03129211DB17D01A60
:1036F000244B1A68254BA3FB02139B094FF47A71E4
:1037000001FB03F3D31A224A82FB03129210DB1748
:10371000D31A1A4601461F4801F022FD194B1B68B7
:103720001A4A82FB03129211DB17D01A154B1A6842
:10373000164BA3FB02139B094FF47A7101FB03F3B1
:10374000D31A134A82FB03129210DB17D31A0246D4
:103750001149124814F0E0FE0CE00A4B1B681946B0
:103760000F4801F0FDFC074B1B681A460D490B483A
:1037700014F0D2FE0948FFF7EFFE00BF0837BD4640
:1037800080BD00BFA00B00200CD20108D34D6210F9
:103790006766666614D2010820D20108C80B0020B3
:1037A0002CD2010838D2010880B582B000AF642362
:1037B0007B607B689BB219465220FDF7F7FD00BF86
:1037C0000837BD4680BD00BF80B582B000AF7860CD
:1037D000214B1B7803F00203DBB2002B14D01E4BED
:1037E0001B7803F00403DBB2002B06D01B48FFF765
:1037F000B3FE1A4801F0B4FC23E01948FFF7ACFE11
:10380000174801F0ADFC1CE0134B1B7803F00403D8
:10381000DBB2002B09D07968124801F0A1FC7A686C
:103820001149124814F078FE08E07968104801F058
:1038300097FC7A680F490D4814F06EFE0B48FFF7AD
:103840008BFE054B03225A700B4B1B680B4A13600F
:1038500000BF0837BD4680BDBC0B002040D2010828
:1038600048D2010850D2010858D20108C80B0020E4
:1038700060D2010868D201089C0B0020C40B002014
:1038800080B500AF114B1B68114A13600CE0FFF7C5
:1038900037FE0E4B1A680E4B1B68D31AB3F57A7FAE
:1038A00002D90C4801F05CFCFFF7A6FE0346002B92
:1038B000EDD0064B1A68064B1B68D31AB3F57A7F16
:1038C0008CBF01230023DBB2184680BD9C0B002077
:1038D000C40B002070D2010880B483B000AF7860C0
:1038E000084B1B68084A1360064B1A68064B1B6896
:1038F000D31AB3F5487FF7D300BF0C37BD4680BC61
:10390000704700BF9C0B0020C40B002080B500AFA7
:103910000D48FFF7E1FF01215220FDF7FFFA0023D8
:103920000022C8215220FDF7EBFE01215220FEF7B4
:1039300043FB00215220FDF7F1FA01215220FDF74F
:10394000B3FF00BF80BD00BF78D2010880B500AFD3
:103950000D48FFF7C1FF01215220FDF7DFFA0023D8
:10396000C82200215220FDF7CBFE02215220FEF793
:1039700023FB00215220FDF7D1FA01215220FDF74F
:1039800093FF00BF80BD00BF80D2010880B500AFAB
:103990000D48FFF7A1FF01215220FDF7BFFA0023D8
:1039A000C82264215220FDF7ABFE03215220FEF70E
:1039B00003FB00215220FDF7B1FA01215220FDF74F
:1039C00073FF00BF80BD00BF88D2010880B500AF83
:1039D000114B1A79114BA3FB021359080B465B00DC
:1039E0000B44D31ADAB20C4B1A710B4B1B79012B17
:1039F00006D0022B07D0002B07D1FFF787FF04E08A
:103A0000FFF7A4FF01E0FFF7C1FF01215220FDF7FE
:103A10004BFF00BF80BD00BFBC0B0020ABAAAAAA11
:103A200080B500AF03215220FEF7FAFB642004F0BA
:103A3000ADF807215220FDF737FF00BF80BD00BF62
:103A400080B582B000AF164B06225A70154B1B682A
:103A5000154A13603223FB805220FDF779FA3F218B
:103A60005220FEF71DFB03215220FEF707F9FB88C9
:103A700019465220FEF73EFB012208215220FEF794
:103A800087FAFFF7A3FF07215220FDF70DFF03215F
:103A90005220FEF7C5FB00BF0837BD4680BD00BF02
:103AA000BC0B00209C0B0020C40B002080B584B010
:103AB00000AF524B1B68002B3FD03B1D19465220D4
:103AC000FDF7C6FEF860FB68002B04D04C48FFF7FA
:103AD000DFFD00BF8EE03B79C3F30203DBB2013BA5
:103AE000032B1BD801A252F823F000BFFD3A0008B7
:103AF000053B00080D3B0008153B0008414801F05C
:103B00002FFB0BE0404801F02BFB07E03F4801F0A2
:103B100027FB03E03E4801F023FB00BF01215220B8
:103B2000FDF7C2FE354B00221A603A4B1B683A4A39
:103B300013603A4B01225A7115E00023BB60354BEC
:103B40001A68354B1B68D31A41F2883293420AD95E
:103B5000BB68002B03D001215220FDF7A5FE2D4BA1
:103B60001B682D4A13602D4B5B79002B0AD0294B23
:103B70001A68294B1B68D31AFA2B17D9274B002236
:103B80005A7113E0254B1B79012B07D0022B09D06A
:103B9000002B0BD1224801F0E3FA07E0214801F0A5
:103BA000DFFA03E0204801F0DBFA00BFFFF7A8FCD2
:103BB000FFF722FD0346002B1CD1FFF761FEF860E2
:103BC000FB68002B05D0FFF72BFF144B07225A7020
:103BD00010E0124B1B795A1C144B83FB0231D31794
:103BE000C91A0B465B000B44D11ACAB20B4B1A71AF
:103BF000FFF7ECFE00BF1037BD4680BD040B002070
:103C000090D2010898D20108A0D20108A8D20108D8
:103C1000B0D201089C0B0020C40B0020BC0B00207C
:103C2000B8D20108C8D20108D8D201085655555556
:103C300080B500AFFFF704FF00BF80BD80B584B042
:103C400000AF5220FEF79AF80346FB73A0495220BA
:103C5000FDF7E0FBB860BB68002B03D09D48FFF781
:103C600017FD32E15220FDF7E9F80346FB80984B3F
:103C70001968FA8813469B0013441B01964A82FB7D
:103C800003025211DB17D31A994210DBFB7B022B84
:103C90000DD8924B1B7803F00203DBB2002B06D049
:103CA000FB7B0133DBB219465220FDF7E7FF884B5F
:103CB0001968FA8813465B011344874A82FB0302A2
:103CC0005211DB17D31A994210DAFB7B012B0DD965
:103CD000824B1B7803F00203DBB2002B06D0FB7B88
:103CE000013BDBB219465220FDF7C8FF784B9B68B9
:103CF000002B3AD0794B1B7803F00103DBB2002B89
:103D00000FD0774B1B68764B1B68754B1B68734A4B
:103D100013786FF300031370714B1B68714A1360C3
:103D200068E05220FDF79AFC38603B68002B07D012
:103D3000674B9B68102B03D16B48FFF70DFC02E02B
:103D40006A48FFF709FC664B1A68664B1B68D31A72
:103D5000B3F5487F4ED9614A137843F001031370DD
:103D60005F4B1B685F4A136044E05C4A13786FF353
:103D7000000313705A4B1B685A4A13605C4B1B8834
:103D80001A465C4B1B6803FB02F2514B1B685949F6
:103D90000968C1F5803101FB03F313441B149AB287
:103DA000534B1A80524B1B881946534801F0D8F9DF
:103DB0004F4B1B881A465149514814F0ADFB474BF5
:103DC0001B7803F00203DBB2002B10D0FB7B012B2E
:103DD00003D14B4B5F221A7009E0FB7B022B03D10E
:103DE000474B3D221A7002E0454B7E221A70444830
:103DF000FFF7B2FBFFF700FC0346002B65D1384B01
:103E00001B68384A1360FFF73BFDB860BB68002BA6
:103E100002D0FFF70DFF58E0304B93F90230DBB2D0
:103E20000133DBB25AB22D4B9A702C4B93F902201E
:103E3000344B1340002B03DA013B63F003030133DF
:103E40005BB2032B07D1254A137843F002031370AA
:103E50000323FB731CE0214A13786FF341031370B3
:103E60001E4BD8781D4B93F90220274B83FB023160
:103E7000D317C91A0B465B000B44D31A5BB2DBB2F3
:103E80000344FB73FB7B032B02D9FB7B033BFB73DC
:103E9000FB7B19465220FDF7F1FEB860BB68002B92
:103EA00006DA1A48FFF7F4FB0C4B02225A700CE0BA
:103EB0000A4B1B7843F380035BB219465220FDF78F
:103EC000B9FBFB7B1846FFF77FFC1037BD4680BD72
:103ED000280C0020ECD201081F85EB51BC0B002000
:103EE0009C0B0020C40B0020F4D20108FCD2010876
:103EF000500C0020F400002004D3010810D3010866
:103F0000C80B0020030000805655555514D30108F6
:103F100080B400AF00BFBD4680BC704780B584B0A0
:103F200000AF786007F10C0202230021842001F029
:103F300039FB4FF2FF737B8107F10A020223142140
:103F4000842001F061FB00F011F900BF1037BD467D
:103F500080BD00BF80B582B000AF0346FB80FFF795
:103F60005DFB002318460837BD4680BD80B584B090
:103F700000AF786039607B68032B0ED07B68022B22
:103F800008D07B68012B02D14FF4804307E04FF447
:103F9000805304E04FF4005301E04FF40043FB6012
:103FA0003B68002B0AD0FB681AB20F4B1B881BB270
:103FB00013431BB29AB20C4B1A800BE0FB681BB286
:103FC000DB431AB2084B1B881BB213401BB29AB2D8
:103FD000054B1A800223044A1221842001F014FBAD
:103FE00000BF1037BD4680BD740C002080B582B084
:103FF00000AF786079680020FFF7B8FF00BF08378E
:10400000BD4680BD80B582B000AF78603960796808
:104010003868FFF7ABFF002318460837BD4680BD60
:1040200080B582B000AF00F00DF80346002B14BF3E
:1040300001230023DBB2FB71FB7918460837BD462C
:1040400080BD00BF80B582B000AFBA1C0223102132
:10405000842001F0A7FA78607B68002B05D17B886B
:1040600003F400639BB27B8006E0064B1B680133C0
:10407000044A136000237B807B8818460837BD46BE
:1040800080BD00BF080B002080B584B000AF786011
:1040900039600023FB607B68BB6016E0BB681B785F
:1040A0001A46124B9B5CF968184600F021F8BB6871
:1040B00001331B782E2B02D1BB680133BB60FB6838
:1040C0000133FB60BB680133BB60FB68032B03DC7F
:1040D000BB681B78002BE1D13868FFF767FA00F066
:1040E00045F800BF1037BD4680BD00BF1CD3010896
:1040F00080B582B000AF786039601B4B1B8843F0FD
:104100007F039AB2184B1A80174B1B8843F4F06355
:104110009AB2154B1A8080223B6802FA03F31BB255
:10412000DB431AB2104B1B881BB213401BB29AB26E
:104130000D4B1A807B689BB203F07F039BB2DB437D
:104140009BB21AB2084B1B881BB213401BB29AB227
:10415000054B1A800223044A1221842001F054FAEC
:1041600000BF0837BD4680BD740C002080B500AF8D
:10417000074B1B8843F4F0639AB2054B1A80022365
:10418000034A1221842001F03FFA00BF80BD00BF26
:10419000740C002080B500AF00F016F800F050F865
:1041A00000F0ACF800F002F900F03AF900F0CEF9B6
:1041B00000F0F0F900F052F900BF80BD80B400AF0C
:1041C00000BFBD4680BC704780B586B000AF1A4ABC
:1041D000194B9B6943F004039361174B9B6903F0F0
:1041E00004037B607B68144A134BDB6943F40033A0
:1041F000D361114BDB6903F400333B603B6804235C
:10420000BB600223FB6001233B6103237B6107F159
:1042100008031946094806F0FFFA0823BB6000238B
:10422000FB6007F108031946044806F0F5FA00BFE1
:104230001837BD4680BD00BF001002400008014095
:1042400080B588B000AF2A4A294BDB6943F0007380
:10425000D361274BDB6903F00073FB60FB68244AE2
:10426000234B9B6943F004039361214B9B6903F04B
:104270000403BB60BB681F4A1E4B5B6823F4C0434A
:1042800053601B4A1A4B9B6943F001039361184B1F
:104290009B6903F001037B607B684FF480533B61B3
:1042A00002237B610323FB610123BB6107F1100340
:1042B0001946114806F0B0FA4FF400633B61002341
:1042C0007B610323FB610023BB6107F110031946E7
:1042D000094806F0A1FA00220521142006F01AFF71
:1042E000142006F033FF00BF2037BD4680BD00BF5D
:1042F00000100240000001400008014080B586B077
:1043000000AF274A264B9B6943F480539361244BAB
:104310009B6903F480537B607B68224A214B5B6876
:1043200023F0010353601E4A1D4B9B6943F00403B5
:1043300093611B4B9B6903F004033B603B680223C2
:10434000FB6002233B6102237B612023BB6007F1FA
:1043500008031946144806F05FFA4023BB6007F1D2
:1043600008031946104806F057FA8023BB6007F18E
:10437000080319460C4806F04FFA1023BB600123CE
:10438000FB6001233B6103237B6107F108031946AE
:10439000054806F041FA00BF1837BD4680BD00BF92
:1043A00000100240000001400008014080B586B0C6
:1043B00000AF184A174B9B6943F400639361154B98
:1043C0009B6903F400637B607B68124A114B9B6915
:1043D00043F0040393610F4B9B6903F004033B60BC
:1043E0003B680D4A0C4B5B6823F0C00353604FF4ED
:1043F0008073BB600023FB6001233B6102237B6170
:1044000007F108031946054806F006FA00BF1837F9
:10441000BD4680BD00100240000001400008014080
:1044200080B582B000AF0C4A0B4BDB6943F002034E
:10443000D361094BDB6903F002037B607B680022D8
:1044400003211D2006F066FE1D2006F07FFE00BF42
:104450000837BD4680BD00BF0010024080B58AB05D
:1044600000AF374A364B9B6943F004039361344BEA
:104470009B6903F004037B617B69314A304B9B6984
:1044800043F0080393612E4B9B6903F008033B61E3
:104490003B692B4A2A4B9B6943F010039361284BDD
:1044A0009B6903F01003FB60FB68254A244B9B6962
:1044B00043F001039361224B9B6903F00103BB604E
:1044C000BB68204A1F4B5B6843F0020353601C4AE1
:1044D0001B4BDB6943F40013D361194BDB6903F415
:1044E00000137B607B684FF48073BB611223FB6118
:1044F00001233B6203237B6207F11803194612482C
:1045000006F08AF94FF40073BB6107F118031946EE
:104510000D4806F081F901220421202006F0FAFD61
:10452000202006F013FE022204211F2006F0F2FDD7
:104530001F2006F00BFE00BF2837BD4680BD00BF20
:104540000010024000000140000C014080B586B020
:1045500000AF0E4A0D4B9B6943F0100393610B4B68
:104560009B6903F010037B607B684FF40053BB60D2
:104570000023FB6000233B6107F108031946044850
:1045800006F04AF900BF1837BD4680BD0010024052
:104590000010014080B586B000AF124A114B9B69F4
:1045A00043F0080393610F4B9B6903F008037B60A2
:1045B0007B680123BB600C4BFB6000233B6107F170
:1045C00008031946094806F027F9012207210620A9
:1045D00006F0A0FD062006F0B9FD00BF1837BD4665
:1045E00080BD00BF0010024000001110000C01400F
:1045F00080B400AF00BFBD4680BC704780B400AF40
:10460000FEE700BF80B400AFFEE700BF80B400AF9C
:10461000FEE700BF80B400AFFEE700BF80B400AF8C
:1046200000BFBD4680BC704780B400AF00BFBD4630
:1046300080BC704780B400AF00BFBD4680BC7047EF
:1046400080B500AF03F08AFA06F024FE00BF80BDFB
:1046500080B500AF012006F069FB00BF80BD00BF40
:1046600080B500AF02480AF0E1FC00BF80BD00BF8A
:10467000340D002080B500AF02480AF049FE00BFAB
:1046800080BD00BF340D002080B500AF024811F09E
:10469000C9FE00BF80BD00BF780C002080B500AF10
:1046A00002480DF04BFF00BF80BD00BF700D002021
:1046B00080B400AF154A154B1B6843F0010313602B
:1046C0001249124B5A68124B13404B600F4A0F4B62
:1046D0001B6823F0847323F4803313600B4A0B4B65
:1046E0001B6823F480231360084A084B5B6823F49B
:1046F000FE035360054B4FF41F029A60054B4FF0C9
:1047000000629A6000BFBD4680BC70470010024046
:104710000000FFF800ED00E080B485B000AF00239A
:10472000FB600023BB6000237B602C4B5B6803F0C5
:104730000C03FB60FB68042B07D0082B09D0002B6F
:1047400033D1274B274A1A6033E0254B254A1A609C
:104750002FE0224B5B6803F47013BB601F4B5B6858
:1047600003F480337B60BB689B0C0233BB607B68C7
:10477000002B06D1BB681C4A02FB03F3184A1360E6
:1047800017E0164B5B6803F40033002B06D0BB68C0
:10479000154A02FB03F3124A13600AE0BB68114A90
:1047A00002FB03F30E4A136003E00D4B0D4A1A603F
:1047B00000BF0A4B5B6803F0F0031B090B4AD35C94
:1047C000DBB2FB60064B1A68FB6822FA03F3044A6B
:1047D000136000BF1437BD4680BC70470010024014
:1047E000F800002000127A0000093D00FC000020C3
:1047F00080B590B000AF0223BB610123BB621023E0
:10480000FB6202237B630023BB634FF4E013FB6373
:1048100007F11803184603F0ADFA01237B60022369
:10482000BB600023FB6000233B6100237B613B1DD9
:104830000121184605F0ECF905F0A0F802460A4BF4
:10484000A3FB02239B09184606F0A2FC042006F0F5
:1048500005FD002200214FF0FF3006F05BFC00BF99
:104860004037BD4680BD00BFD34D621080B500AF5C
:10487000194B1A4A1A60184B194A1A63164B194AEF
:104880005A63154B00229A61134B0022DA61124BD6
:1048900000221A62104B00225A620F4B00229A62C9
:1048A0000D4B0022DA620C4B00229A600A4B122256
:1048B0005A60094B0022DA60074B4FF420221A613C
:1048C000054B4FF440125A61034810F0DDFE0648D4
:1048D00000F09AF800BF80BD780C00200064004012
:1048E000B80C0020EC0C0020F102000880B582B06A
:1048F00000AF7860142006F037FC7B68324A9342A0
:104900002AD0314A934203DC304A934233D041E00B
:104910002F4A934211D02F4A93423BD12E4B032270
:104920005A602D4B0022DA602B4B4FF4E0221A61C3
:10493000294B4FF400125A613AE0274B06225A6085
:10494000254B0022DA60244B4FF4E0221A61224BFF
:104950004FF400125A612BE01F4B09225A601E4B84
:104960000022DA601C4B4FF420221A611A4B4FF4DC
:1049700040125A611CE0184B12225A60164B00225A
:10498000DA60154B4FF420221A61134B4FF440129A
:104990005A610DE0104B12225A600F4B0022DA6070
:1049A0000D4B4FF420221A610B4B4FF440125A6109
:1049B000094810F069FE142006F0C8FB01231846D0
:1049C0000837BD4680BD00BF90D0030048E8010015
:1049D00020A1070040420F00780C002080B500AFF6
:1049E0000021024811F00CFC00BF80BD780C0020B3
:1049F00080B400AF034B00221A6000BFBD4680BCEC
:104A0000704700BFE40B002080B483B000AF786033
:104A1000034A7B68136000BF0C37BD4680BC7047FB
:104A2000E40B002090B587B000AF3C4684E80F004F
:104A300000237B617B7B002B08D1264B1B6B3A68E4
:104A40001A60244B1B6B00225A6007E0214B1B6B42
:104A500000221A601F4B1B6B3A685A601D4B1B6B80
:104A6000BA7B002A01D1002200E00222DA60194B51
:104A70001B6B7A7B002A01D1002200E004229A609D
:104A8000144B1B6B3A7B1A6100237B610EE0114BC8
:104A90001A6B391D7B690B441B7819467B690433FB
:104AA0009B00134459607B6901337B613B7B1A4651
:104AB0007B699A42EBDC0021064810F0CBFF0346ED
:104AC000002B01D0002300E0012318461C37BD460F
:104AD00090BD00BF780C002080B485B000AF786036
:104AE0000023FB60254B5B6B9B68002B03D1234BA2
:104AF0005B6B1B6802E0214B5B6B5B687A68136041
:104B00001E4B5B6BDB68002B14BF01230023DBB261
:104B10001A467B689A73194B5B6B9B68002B14BF1A
:104B200001230023DBB21A467B685A73134B5B6B7D
:104B30001B69DAB27B681A730023FB6010E00F4B2D
:104B40005A6BFB6804339B0013445B68D9B27A68E4
:104B5000FB68134404330A461A70FB680133FB6098
:104B60007B681B7B1A46FB689A42E8DC7B681B7BF0
:104B700018461437BD4680BC704700BF780C002033
:104B800080B582B000AF0346FB71FB79052B29D8B5
:104B900001A252F823F000BFB14B0008B54B00084A
:104BA000BD4B0008C74B0008D14B0008DB4B000889
:104BB00001231BE00F4B00229A6013E00D4B4FF0D6
:104BC00000429A600EE00B4B4FF080429A6009E081
:104BD000084B4FF080429A6004E0064B4FF0404291
:104BE0009A6000BF034810F04FFD0346184608378F
:104BF000BD4680BD780C002080B58EB000AFF86057
:104C0000B9603B601346FB713B687B620123BB626A
:104C10000023FB62FB681B0C3B61FB689BB27B6162
:104C2000BB681B0CBB61BB689BB2FB6100233B6292
:104C300001233B630E237B6307F1100319460448ED
:104C400010F004FE012318463837BD4680BD00BF72
:104C5000780C002080B58AB000AF00237B61002370
:104C6000BB610123FB6100233B6000237B600023C9
:104C7000BB600023FB6000233B6101233B620E23EA
:104C80007B623B461946044810F0E0FD01231846BC
:104C90002837BD4680BD00BF780C002080B400AF2F
:104CA000034B002283F8392000BFBD4680BC70470B
:104CB000780C002080B500AF034811F0EDFC0346EE
:104CC000DBB2184680BD00BF780C002080B500AF75
:104CD000034811F0E1FC0346DBB2184680BD00BF7B
:104CE000780C002080B582B000AF7860264B1B683E
:104CF000002B02D0244B1B6898477B6893F839300F
:104D0000DBB2122B04D17B68322283F839202EE0EB
:104D10007B68222283F839207B680022DA637B6873
:104D20001B687A681268526942F480725A617B6823
:104D30001B687A681268526942F400725A617B6893
:104D40001B687A681268526942F480625A617B6813
:104D50001B687A681268526942F400625A617B6883
:104D60001B687A681268526942F400425A617B6893
:104D70001B687A681268526942F002025A6100BFE9
:104D80000837BD4680BD00BFE40B002080B500AFF2
:104D9000114B124A1A60104B4FF4E1325A600E4B1D
:104DA00000229A600C4B0022DA600B4B00221A6141
:104DB000094B00229A61084B0C225A61064B0022D3
:104DC000DA61054806F072FA01220549024806F048
:104DD000BFFD00BF80BD00BFE80B002000440040C5
:104DE000300D002080B582B000AF786039603B683C
:104DF0009AB24FF6FF737968034806F0EBFB00BFE9
:104E00000837BD4680BD00BFE80B002080B582B0EA
:104E100000AF7860391D4FF6FF730122034806F09A
:104E2000D9FB002318460837BD4680BDE80B00209B
:104E300080B582B000AF786001220449044806F0D2
:104E400087FD00BF0837BD4680BD00BF300D002084
:104E5000E80B002080B489B000AFF860B9607A60D8
:104E60003B60FB687B61FB685A1CFA60BA68796832
:104E7000B2FBF1F1786800FB01F1521A35498A5C06
:104E80001A70BA687B68B2FBF3F3BB60BB68002B97
:104E9000E9D1FB6800221A70FA687B69D31A3B617A
:104EA0000023FB611AE07A69FB6913441B78FB76E7
:104EB0007A69FB6913443969FA698A1A013A79698E
:104EC0000A4412781A703A69FB69D31A013B7A696D
:104ED0001344FA7E1A70FB690133FB613B695A087F
:104EE000FB699A42DFD83A693B689A422DD23B6906
:104EF000FB610EE0FA693B681A443B69D31A7A6990
:104F000013447969FA690A4412781A70FB69013B03
:104F1000FB61FB69002BEDD0BB6A002B02D0202384
:104F2000FB7601E03023FB760023FB6107E07A6922
:104F3000FB691344FA7E1A70FB690133FB613A681E
:104F40003B69D21AFB699A42F1D800BF2437BD46AB
:104F500080BC70470C01002080B487B000AF78603F
:104F6000396000237B617B685A1C7A601B78FB7375
:104F70002EE0FB7B2F2B06D9FB7B392B03D8FB7B49
:104F8000303B3B6118E03B68102B09D1FB7B402B89
:104F900006D9FB7B462B03D8FB7B373B3B610BE001
:104FA0003B68102B17D1FB7B602B14D9FB7B662B46
:104FB00011D8FB7B573B3B613B687A6902FB03F2EC
:104FC0003B6913447B617B685A1C7A601B78FB73D6
:104FD000FB7B002BCDD17B6918461C37BD4680BCBE
:104FE000704700BF90B5A9B000AF786039604E4BF4
:104FF000C7F88C303B68C7F89C30386812F0C2FBA9
:105000000346C7F894300023C7F8983013E04749A7
:10501000D7F89C0012F0F0F90346C7F89C30D7F897
:105020009C0012F0AFFB0346C7F89430D7F89830D5
:105030000133C7F898303D49D7F89C0012F0DCF9ED
:1050400003461C46D7F8940012F082F9034637490C
:10505000184612F0D1F903461946204612F060FBBB
:105060000346002BD3D00023C7F89030D7F8942004
:105070002F4B83FB02139910D317C91A0B469B00C1
:105080000B445B00D11A0A46D7F890309B0007F119
:10509000A0010B4443F8942CD7F89430244A82FBA7
:1050A00003129210DB17D31AC7F89430D7F8903058
:1050B0000133C7F89030D7F89430002BD6DC1AE0D3
:1050C0007A68531C7B60D7F890309B0007F1A001F1
:1050D0000B4453F8943CD7F88C100B441B78137096
:1050E000D7F89020D7F898309A4204D17B685A1CA0
:1050F0007A602E221A70D7F89030013BC7F89030B2
:10510000D7F89030002BDBDAD7F89830002B04D199
:105110007B685A1C7A6030221A707B6800221A70F1
:1051200000BFA437BD4690BD1CD50108000020413A
:105130006766666680B582B000AF786007E07B681E
:105140001B781846FFF762FE7B6801337B607B6843
:105150001B78002BF3D100BF0837BD4680BD00BFD0
:105160000FB490B597B002AF07F164037B63B1E170
:105170003B6E1B78252B40F0A58100237B64012327
:105180003B643B6E01333B663B6E1B78302B04D196
:105190003B6E01333B6600233B643B6E1B7887F814
:1051A0004F3097F84F30302B2AD997F84F30392BA2
:1051B00026D80023FB6310E0FB6B5A1CFA6307F14F
:1051C0005002134497F84F2003F84C2C3B6E0133E8
:1051D0003B663B6E1B7887F84F3097F84F302F2B8C
:1051E00003D997F84F30392BE6D93A1DFB6B13449E
:1051F00000221A703B1D0A211846FFF7ADFE7864A5
:1052000097F84F30253B532B00F2568101A252F8FC
:1052100023F000BF65530008B9540008B9540008D2
:10522000B9540008B9540008B9540008B95400082A
:10523000B9540008B9540008B9540008B95400081A
:10524000B9540008B9540008B9540008B95400080A
:10525000B9540008B9540008B9540008B9540008FA
:10526000B9540008B9540008B9540008B9540008EA
:10527000B9540008B9540008B9540008B9540008DA
:10528000B9540008B9540008B9540008B9540008CA
:10529000B9540008B9540008B9540008B9540008BA
:1052A000B9540008B9540008B9540008B9540008AA
:1052B000B9540008B9540008B9540008B95400089A
:1052C000B9540008B9540008B9540008B95400088A
:1052D000B9540008B9540008B9540008B95400087A
:1052E000B9540008B9540008B9540008B95400086A
:1052F000B9540008B9540008B9540008B95400085A
:10530000B9540008B9540008B95400086D53000896
:1053100097530008B95400087D540008B954000898
:10532000B9540008B9540008B9540008B954000829
:10533000B9540008B9540008B9540008F9530008DA
:1053400021540008B9540008B954000885530008D6
:10535000B9540008D1530008B9540008B9540008E2
:10536000555400082520FFF751FDB0E07B6B1A1D56
:105370007A631B6887F84F3097F84F301846FFF76D
:1053800045FDA4E07B6B1A1D7A631B68BB63B86B99
:10539000FFF7D0FE9BE07B6B1A1D7A631B68BB6432
:1053A000BB6C002B05DA2D20FFF730FDBB6C5B4298
:1053B000BB643B6C07F1100000937B6C0A22B96C54
:1053C000FFF748FD07F110031846FFF7B3FE7EE034
:1053D0007B6B1A1D7A631B68BB643B6C07F1100082
:1053E00000937B6C0A22B96CFFF734FD07F11003C0
:1053F0001846FFF79FFE6AE07B6B1A1D7A631B68F5
:10540000BB643B6C07F1100000937B6C0822B96C05
:10541000FFF720FD07F110031846FFF78BFE56E05B
:105420003020FFF7F3FC7820FFF7F0FC7B6B1A1DB0
:105430007A631B68BB643B6C07F1100000937B6CC4
:105440001022B96CFFF706FD07F110031846FFF7AD
:1054500071FE3CE07B6B1A1D7A631B68BB643B6C7E
:1054600007F1100000937B6C1022B96CFFF7F2FC7F
:1054700007F110031846FFF75DFE28E07B6B07334A
:1054800023F0070303F108027A6318CB184621467C
:1054900011F034FE0346BB64B86C11F055FF0246B0
:1054A00007F1100311461846FFF79CFD07F11003A2
:1054B0001846FFF73FFE0AE03B6E1B781846FFF7E1
:1054C000A5FC04E03B6E1B781846FFF79FFC3B6E83
:1054D00001333B663B6E1B78002B7FF449AE00BF67
:1054E0005437BD46BDE8904004B0704780B500AF6A
:1054F000104B114A1A600F4B4EF660225A600D4B4A
:1055000000229A600B4B0222DA600A4B4FF4804271
:105510001A61084B00225A61064BFF229A61054B23
:105520000022DA61034B00221A62024807F03EFFB4
:1055300000BF80BD340D00200054004080B588B00D
:1055400002AF0346B9607A60FB817B689AB2F98941
:10555000642300931346BA68044807F0E5FF034646
:105560007B617B6918461837BD4680BD340D00202D
:1055700080B588B002AF0346B9607A60FB817B6872
:105580009AB2F989642300931346BA68044808F074
:1055900081F803467B617B6918461837BD4680BD9C
:1055A000340D002080B588B002AFBA607B6003463E
:1055B000FB810B467B737B7BFB7407F11302F9893C
:1055C0006423009301230F4807F0AEFF03467B617D
:1055D0007B69002B0FD17B6898B27B68642202FB49
:1055E00003F3F98900930346BA68064808F052F8B5
:1055F00003467B6100E000BF7B6918461837BD4653
:1056000080BD00BF340D002080B58CB002AFBA6001
:105610007B600346FB810B467B737B7B3B7507F10D
:10562000140301337A68B968184612F0D1F87B6820
:105630009BB2013398B207F11402F98964230093F5
:105640000346054807F070FF03467B627B6A1846F5
:105650002837BD4680BD00BF340D002080B584B022
:1056600000AF0346FB800B467B7113463B717B7991
:105670003B733B797B7300BF07F10C02F98802236F
:10568000084808F02BFB0346002BF5D100BF054866
:1056900009F076FF0346012BF9D100BF1037BD4654
:1056A00080BD00BF340D002080B584B000AFBA606B
:1056B0007B600346FB810B467B7300BF07F10D0245
:1056C000F9890123114808F009FB0346002BF5D1A5
:1056D00000BF0E4809F054FF0346012BF9D100BF6B
:1056E0007B689BB2F989BA68084808F069FB0346F1
:1056F000002BF5D100BF054809F042FF0346012BFE
:10570000F9D100BF1037BD4680BD00BF340D002069
:1057100080B586B002AF0346FB800B46BB801346C4
:10572000FB70BB881B0A9BB2DBB23B72BB88DBB24F
:105730007B72FB78BB7207F10802F988642300933F
:105740000323054807F0F0FE0346FB60FB6818469C
:105750001037BD4680BD00BF340D002080B586B037
:1057600002AF0346FB800B46BB8013467B80BB88A1
:105770001B0A9BB2DBB23B72BB88DBB27B727B88BD
:105780001B0A9BB2DBB2BB727B88DBB2FB7207F1F8
:105790000802F988642300930423054807F0C4FE37
:1057A0000346FB60FB6818461037BD4680BD00BF4E
:1057B000340D002080B586B002AF03463A60FB800E
:1057C0000B46BB80BB881B0A9BB2DBB23B72BB881B
:1057D000DBB27B723B681B0EDBB2BB723B681B0CFF
:1057E000DBB2FB723B681B0ADBB23B733B68DBB28C
:1057F0007B7307F10802F9886423009306230548A8
:1058000007F092FE0346FB60FB6818461037BD4662
:1058100080BD00BF340D002080B586B002AF0346C6
:105820003A60FB800B46BB80BB881B0A9BB2DBB295
:105830003B72BB88DBB27B7207F10802F9886423F4
:10584000009302230E4807F06FFE0346FB60FB68DF
:10585000002B10D107F10802F9886423009301237B
:10586000074807F017FF0346FB60FB68002B02D1D7
:105870003A7A3B681A70FB6818461037BD4680BDFF
:10588000340D002080B586B002AF03463A60FB803D
:105890000B46BB80BB881B0A9BB2DBB23B72BB884A
:1058A000DBB27B7207F10802F988642300930223BC
:1058B000124807F039FE0346FB60FB68002B17D146
:1058C00007F10802F9886423009302230B4807F0CC
:1058D000E1FE0346FB60FB68002B09D13B7A1B020B
:1058E0001AB27B7A1BB213431BB29AB23B681A807E
:1058F000FB6818461037BD4680BD00BF340D002040
:1059000080B586B002AF03463A60FB800B46BB8091
:10591000BB881B0A9BB2DBB23B72BB88DBB27B72DB
:1059200007F10802F988642300930223134807F063
:10593000FBFD0346FB60FB68002B19D107F1080251
:10594000F9886423009304230C4807F0A3FE034660
:10595000FB60FB68002B0BD13B7A1A067B7A1B0499
:105960001A43BB7A1B021343FA7A1A433B681A6044
:10597000FB6818461037BD4680BD00BF340D0020BF
:1059800080B588B002AFBA607B600346FB810B46EE
:10599000BB81BB891B0A9BB2DBB23B74BB89DBB208
:1059A0007B7407F11002F9896423009302230E48E7
:1059B00007F0BAFD03467B617B69002B0ED17B6843
:1059C00098B27B68642202FB03F3F98900930346D3
:1059D000BA68054807F05EFE03467B617B6918469E
:1059E0001837BD4680BD00BF340D002080B500AF24
:1059F00000F010FA642002F0C9F800226B21D020D8
:105A0000FFF72CFE642002F0C1F801226B21D020A8
:105A1000FFF724FE00226C21D020FFF71FFE00229A
:105A20001A21D020FFF71AFE00221921D020FFF7FB
:105A300015FE10221B21D020FFF710FE08221C218A
:105A4000D020FFF70BFE03221D21D020FFF706FE1A
:105A500002223721D020FFF701FE00BF80BD00BF2A
:105A600090B585B000AF786000220A211820FFF7BA
:105A7000F5FD0A2002F08AF80F220A211820FFF70C
:105A8000EDFD0A2002F082F807F10C020323102139
:105A90001820FFF709FE3B7B803B184611F058FCAD
:105AA00003464FF08741184611F05AFD03464FF068
:105AB0007E51184611F098FB03461A467B681A601F
:105AC0007B681C1D7B7B803B184611F041FC034624
:105AD0004FF08741184611F043FD03464FF07E51C9
